{
  "_format": "hh-sol-artifact-1",
  "contractName": "SupplyChain",
  "sourceName": "contracts/SupplyChain.sol",
  "abi": [
    {
      "inputs": [],
      "stateMutability": "nonpayable",
      "type": "constructor"
    },
    {
      "anonymous": false,
      "inputs": [],
      "name": "ChainUpdated",
      "type": "event"
    },
    {
      "inputs": [
        {
          "internalType": "uint256",
          "name": "_id",
          "type": "uint256"
        }
      ],
      "name": "CreateProduct",
      "outputs": [],
      "stateMutability": "nonpayable",
      "type": "function"
    },
    {
      "inputs": [
        {
          "internalType": "uint256",
          "name": "_id",
          "type": "uint256"
        }
      ],
      "name": "GetProductCode",
      "outputs": [
        {
          "internalType": "uint256",
          "name": "",
          "type": "uint256"
        }
      ],
      "stateMutability": "view",
      "type": "function"
    },
    {
      "inputs": [
        {
          "internalType": "uint256",
          "name": "_prodCode",
          "type": "uint256"
        }
      ],
      "name": "GetSupplyChain",
      "outputs": [
        {
          "components": [
            {
              "components": [
                {
                  "internalType": "string",
                  "name": "userType",
                  "type": "string"
                },
                {
                  "internalType": "string",
                  "name": "name",
                  "type": "string"
                },
                {
                  "internalType": "string",
                  "name": "location",
                  "type": "string"
                },
                {
                  "internalType": "string",
                  "name": "userDesc",
                  "type": "string"
                }
              ],
              "internalType": "struct SupplyChain.User",
              "name": "userInfo",
              "type": "tuple"
            },
            {
              "internalType": "string",
              "name": "prodName",
              "type": "string"
            },
            {
              "internalType": "string",
              "name": "processDesc",
              "type": "string"
            },
            {
              "internalType": "address",
              "name": "nodeAddress",
              "type": "address"
            }
          ],
          "internalType": "struct SupplyChain.Node[]",
          "name": "",
          "type": "tuple[]"
        }
      ],
      "stateMutability": "view",
      "type": "function"
    },
    {
      "inputs": [],
      "name": "GetUser",
      "outputs": [
        {
          "components": [
            {
              "internalType": "string",
              "name": "userType",
              "type": "string"
            },
            {
              "internalType": "string",
              "name": "name",
              "type": "string"
            },
            {
              "internalType": "string",
              "name": "location",
              "type": "string"
            },
            {
              "internalType": "string",
              "name": "userDesc",
              "type": "string"
            }
          ],
          "internalType": "struct SupplyChain.User",
          "name": "",
          "type": "tuple"
        }
      ],
      "stateMutability": "view",
      "type": "function"
    },
    {
      "inputs": [
        {
          "internalType": "string",
          "name": "_password",
          "type": "string"
        }
      ],
      "name": "Login",
      "outputs": [
        {
          "internalType": "bool",
          "name": "",
          "type": "bool"
        }
      ],
      "stateMutability": "view",
      "type": "function"
    },
    {
      "inputs": [
        {
          "internalType": "string",
          "name": "_location",
          "type": "string"
        }
      ],
      "name": "SetTracker",
      "outputs": [],
      "stateMutability": "nonpayable",
      "type": "function"
    },
    {
      "inputs": [
        {
          "internalType": "uint256",
          "name": "_prodCode",
          "type": "uint256"
        },
        {
          "internalType": "string",
          "name": "_prodName",
          "type": "string"
        },
        {
          "internalType": "string",
          "name": "_prodDesc",
          "type": "string"
        }
      ],
      "name": "UpdateSupplyChain",
      "outputs": [],
      "stateMutability": "nonpayable",
      "type": "function"
    },
    {
      "inputs": [
        {
          "internalType": "string",
          "name": "_userType",
          "type": "string"
        },
        {
          "internalType": "string",
          "name": "_name",
          "type": "string"
        },
        {
          "internalType": "string",
          "name": "_location",
          "type": "string"
        },
        {
          "internalType": "string",
          "name": "_userDesc",
          "type": "string"
        }
      ],
      "name": "UpdateUser",
      "outputs": [],
      "stateMutability": "nonpayable",
      "type": "function"
    },
    {
      "inputs": [],
      "name": "prodCount",
      "outputs": [
        {
          "internalType": "uint256",
          "name": "",
          "type": "uint256"
        }
      ],
      "stateMutability": "view",
      "type": "function"
    },
    {
      "inputs": [
        {
          "internalType": "uint256",
          "name": "",
          "type": "uint256"
        },
        {
          "internalType": "uint256",
          "name": "",
          "type": "uint256"
        }
      ],
      "name": "supplyChain",
      "outputs": [
        {
          "components": [
            {
              "internalType": "string",
              "name": "userType",
              "type": "string"
            },
            {
              "internalType": "string",
              "name": "name",
              "type": "string"
            },
            {
              "internalType": "string",
              "name": "location",
              "type": "string"
            },
            {
              "internalType": "string",
              "name": "userDesc",
              "type": "string"
            }
          ],
          "internalType": "struct SupplyChain.User",
          "name": "userInfo",
          "type": "tuple"
        },
        {
          "internalType": "string",
          "name": "prodName",
          "type": "string"
        },
        {
          "internalType": "string",
          "name": "processDesc",
          "type": "string"
        },
        {
          "internalType": "address",
          "name": "nodeAddress",
          "type": "address"
        }
      ],
      "stateMutability": "view",
      "type": "function"
    }
  ],
  "bytecode": "0x6080604052633b9aca006001556040518060600160405280603c815260200162002755603c9139600290816200003691906200045f565b506040518060400160405280600b81526020017f466c6f7269646120233237000000000000000000000000000000000000000000815250600390816200007d91906200045f565b503480156200008b57600080fd5b5060405180604001604052806040518060400160405280600d81526020017f5065616e7574204275747465720000000000000000000000000000000000000081525081526020016040518060600160405280603b815260200162002791603b91398152506004600080815260200190815260200160002060008201518160000190816200011991906200045f565b5060208201518160010190816200013191906200045f565b5090505060405180604001604052806040518060400160405280600f81526020017f4d69786564204672756974204a616d000000000000000000000000000000000081525081526020016040518060c0016040528060828152602001620027cc6082913981525060046000600181526020019081526020016000206000820151816000019081620001c391906200045f565b506020820151816001019081620001db91906200045f565b5090505062000546565b600081519050919050565b7f4e487b7100000000000000000000000000000000000000000000000000000000600052604160045260246000fd5b7f4e487b7100000000000000000000000000000000000000000000000000000000600052602260045260246000fd5b600060028204905060018216806200026757607f821691505b6020821081036200027d576200027c6200021f565b5b50919050565b60008190508160005260206000209050919050565b60006020601f8301049050919050565b600082821b905092915050565b600060088302620002e77fffffffffffffffffffffffffffffffffffffffffffffffffffffffffffffffff82620002a8565b620002f38683620002a8565b95508019841693508086168417925050509392505050565b6000819050919050565b6000819050919050565b6000620003406200033a62000334846200030b565b62000315565b6200030b565b9050919050565b6000819050919050565b6200035c836200031f565b620003746200036b8262000347565b848454620002b5565b825550505050565b600090565b6200038b6200037c565b6200039881848462000351565b505050565b5b81811015620003c057620003b460008262000381565b6001810190506200039e565b5050565b601f8211156200040f57620003d98162000283565b620003e48462000298565b81016020851015620003f4578190505b6200040c620004038562000298565b8301826200039d565b50505b505050565b600082821c905092915050565b6000620004346000198460080262000414565b1980831691505092915050565b60006200044f838362000421565b9150826002028217905092915050565b6200046a82620001e5565b67ffffffffffffffff811115620004865762000485620001f0565b5b6200049282546200024e565b6200049f828285620003c4565b600060209050601f831160018114620004d75760008415620004c2578287015190505b620004ce858262000441565b8655506200053e565b601f198416620004e78662000283565b60005b828110156200051157848901518255600182019150602085019450602081019050620004ea565b868310156200053157848901516200052d601f89168262000421565b8355505b6001600288020188555050505b505050505050565b6121ff80620005566000396000f3fe608060405234801561001057600080fd5b506004361061009e5760003560e01c8063ae24ba5511610066578063ae24ba5514610147578063b3979d2414610163578063db5a43bf1461017f578063e7e6c344146101af578063f4d0f1c0146101e25761009e565b8063017e19a3146100a35780630b2d8924146100c15780635ee0f654146100f157806387f59ef31461010f5780639287404b1461012b575b600080fd5b6100ab610212565b6040516100b8919061143c565b60405180910390f35b6100db60048036038101906100d691906115b1565b610218565b6040516100e89190611615565b60405180910390f35b6100f9610281565b6040516101069190611727565b60405180910390f35b610129600480360381019061012491906115b1565b610520565b005b61014560048036038101906101409190611775565b610533565b005b610161600480360381019061015c9190611800565b610a70565b005b61017d6004803603810190610178919061182d565b610aed565b005b61019960048036038101906101949190611800565b610bb4565b6040516101a69190611af0565b60405180910390f35b6101c960048036038101906101c49190611b12565b610ffc565b6040516101d99493929190611bab565b60405180910390f35b6101fc60048036038101906101f79190611800565b6113cb565b604051610209919061143c565b60405180910390f35b60005481565b6000600260405160200161022c9190611d08565b60405160208183030381529060405280519060200120826040516020016102539190611d50565b6040516020818303038152906040528051906020012003610277576001905061027c565b600090505b919050565b6102896113fb565b600760003373ffffffffffffffffffffffffffffffffffffffff1673ffffffffffffffffffffffffffffffffffffffff1681526020019081526020016000206040518060800160405290816000820180546102e390611c34565b80601f016020809104026020016040519081016040528092919081815260200182805461030f90611c34565b801561035c5780601f106103315761010080835404028352916020019161035c565b820191906000526020600020905b81548152906001019060200180831161033f57829003601f168201915b5050505050815260200160018201805461037590611c34565b80601f01602080910402602001604051908101604052809291908181526020018280546103a190611c34565b80156103ee5780601f106103c3576101008083540402835291602001916103ee565b820191906000526020600020905b8154815290600101906020018083116103d157829003601f168201915b5050505050815260200160028201805461040790611c34565b80601f016020809104026020016040519081016040528092919081815260200182805461043390611c34565b80156104805780601f1061045557610100808354040283529160200191610480565b820191906000526020600020905b81548152906001019060200180831161046357829003601f168201915b5050505050815260200160038201805461049990611c34565b80601f01602080910402602001604051908101604052809291908181526020018280546104c590611c34565b80156105125780601f106104e757610100808354040283529160200191610512565b820191906000526020600020905b8154815290600101906020018083116104f557829003601f168201915b505050505081525050905090565b806003908161052f9190611efe565b5050565b6006600084815260200190815260200160002060009054906101000a900460ff16610593576040517f08c379a000000000000000000000000000000000000000000000000000000000815260040161058a9061201c565b60405180910390fd5b60036040516020016105a59190611d08565b60405160208183030381529060405280519060200120600760003373ffffffffffffffffffffffffffffffffffffffff1673ffffffffffffffffffffffffffffffffffffffff16815260200190815260200160002060020160405160200161060d9190611d08565b6040516020818303038152906040528051906020012014610663576040517f08c379a000000000000000000000000000000000000000000000000000000000815260040161065a90612088565b60405180910390fd5b600860008481526020019081526020016000206040518060800160405280600760003373ffffffffffffffffffffffffffffffffffffffff1673ffffffffffffffffffffffffffffffffffffffff1681526020019081526020016000206040518060800160405290816000820180546106db90611c34565b80601f016020809104026020016040519081016040528092919081815260200182805461070790611c34565b80156107545780601f1061072957610100808354040283529160200191610754565b820191906000526020600020905b81548152906001019060200180831161073757829003601f168201915b5050505050815260200160018201805461076d90611c34565b80601f016020809104026020016040519081016040528092919081815260200182805461079990611c34565b80156107e65780601f106107bb576101008083540402835291602001916107e6565b820191906000526020600020905b8154815290600101906020018083116107c957829003601f168201915b505050505081526020016002820180546107ff90611c34565b80601f016020809104026020016040519081016040528092919081815260200182805461082b90611c34565b80156108785780601f1061084d57610100808354040283529160200191610878565b820191906000526020600020905b81548152906001019060200180831161085b57829003601f168201915b5050505050815260200160038201805461089190611c34565b80601f01602080910402602001604051908101604052809291908181526020018280546108bd90611c34565b801561090a5780601f106108df5761010080835404028352916020019161090a565b820191906000526020600020905b8154815290600101906020018083116108ed57829003601f168201915b50505050508152505081526020018481526020018381526020013373ffffffffffffffffffffffffffffffffffffffff16815250908060018154018082558091505060019003906000526020600020906007020160009091909190915060008201518160000160008201518160000190816109859190611efe565b50602082015181600101908161099b9190611efe565b5060408201518160020190816109b19190611efe565b5060608201518160030190816109c79190611efe565b50505060208201518160040190816109df9190611efe565b5060408201518160050190816109f59190611efe565b5060608201518160060160006101000a81548173ffffffffffffffffffffffffffffffffffffffff021916908373ffffffffffffffffffffffffffffffffffffffff16021790555050507f462009532ec6130c0e39e10d07ecc443cafe21b4352444736001f665528346b360405160405180910390a1505050565b6000805460015483610a8291906120d7565b610a8c9190612119565b905081600560008381526020019081526020016000208190555060016006600083815260200190815260200160002060006101000a81548160ff021916908315150217905550600080815480929190610ae49061214d565b91905055505050565b6000604051806080016040528086815260200185815260200184815260200183815250905080600760003373ffffffffffffffffffffffffffffffffffffffff1673ffffffffffffffffffffffffffffffffffffffff1681526020019081526020016000206000820151816000019081610b679190611efe565b506020820151816001019081610b7d9190611efe565b506040820151816002019081610b939190611efe565b506060820151816003019081610ba99190611efe565b509050505050505050565b606060086000838152602001908152602001600020805480602002602001604051908101604052809291908181526020016000905b82821015610ff1578382906000526020600020906007020160405180608001604052908160008201604051806080016040529081600082018054610c2c90611c34565b80601f0160208091040260200160405190810160405280929190818152602001828054610c5890611c34565b8015610ca55780601f10610c7a57610100808354040283529160200191610ca5565b820191906000526020600020905b815481529060010190602001808311610c8857829003601f168201915b50505050508152602001600182018054610cbe90611c34565b80601f0160208091040260200160405190810160405280929190818152602001828054610cea90611c34565b8015610d375780601f10610d0c57610100808354040283529160200191610d37565b820191906000526020600020905b815481529060010190602001808311610d1a57829003601f168201915b50505050508152602001600282018054610d5090611c34565b80601f0160208091040260200160405190810160405280929190818152602001828054610d7c90611c34565b8015610dc95780601f10610d9e57610100808354040283529160200191610dc9565b820191906000526020600020905b815481529060010190602001808311610dac57829003601f168201915b50505050508152602001600382018054610de290611c34565b80601f0160208091040260200160405190810160405280929190818152602001828054610e0e90611c34565b8015610e5b5780601f10610e3057610100808354040283529160200191610e5b565b820191906000526020600020905b815481529060010190602001808311610e3e57829003601f168201915b5050505050815250508152602001600482018054610e7890611c34565b80601f0160208091040260200160405190810160405280929190818152602001828054610ea490611c34565b8015610ef15780601f10610ec657610100808354040283529160200191610ef1565b820191906000526020600020905b815481529060010190602001808311610ed457829003601f168201915b50505050508152602001600582018054610f0a90611c34565b80601f0160208091040260200160405190810160405280929190818152602001828054610f3690611c34565b8015610f835780601f10610f5857610100808354040283529160200191610f83565b820191906000526020600020905b815481529060010190602001808311610f6657829003601f168201915b505050505081526020016006820160009054906101000a900473ffffffffffffffffffffffffffffffffffffffff1673ffffffffffffffffffffffffffffffffffffffff1673ffffffffffffffffffffffffffffffffffffffff168152505081526020019060010190610be9565b505050509050919050565b6008602052816000526040600020818154811061101857600080fd5b9060005260206000209060070201600091509150508060000160405180608001604052908160008201805461104c90611c34565b80601f016020809104026020016040519081016040528092919081815260200182805461107890611c34565b80156110c55780601f1061109a576101008083540402835291602001916110c5565b820191906000526020600020905b8154815290600101906020018083116110a857829003601f168201915b505050505081526020016001820180546110de90611c34565b80601f016020809104026020016040519081016040528092919081815260200182805461110a90611c34565b80156111575780601f1061112c57610100808354040283529160200191611157565b820191906000526020600020905b81548152906001019060200180831161113a57829003601f168201915b5050505050815260200160028201805461117090611c34565b80601f016020809104026020016040519081016040528092919081815260200182805461119c90611c34565b80156111e95780601f106111be576101008083540402835291602001916111e9565b820191906000526020600020905b8154815290600101906020018083116111cc57829003601f168201915b5050505050815260200160038201805461120290611c34565b80601f016020809104026020016040519081016040528092919081815260200182805461122e90611c34565b801561127b5780601f106112505761010080835404028352916020019161127b565b820191906000526020600020905b81548152906001019060200180831161125e57829003601f168201915b5050505050815250509080600401805461129490611c34565b80601f01602080910402602001604051908101604052809291908181526020018280546112c090611c34565b801561130d5780601f106112e25761010080835404028352916020019161130d565b820191906000526020600020905b8154815290600101906020018083116112f057829003601f168201915b50505050509080600501805461132290611c34565b80601f016020809104026020016040519081016040528092919081815260200182805461134e90611c34565b801561139b5780601f106113705761010080835404028352916020019161139b565b820191906000526020600020905b81548152906001019060200180831161137e57829003601f168201915b5050505050908060060160009054906101000a900473ffffffffffffffffffffffffffffffffffffffff16905084565b600060016000546113dc9190612195565b600154836113ea91906120d7565b6113f49190612119565b9050919050565b6040518060800160405280606081526020016060815260200160608152602001606081525090565b6000819050919050565b61143681611423565b82525050565b6000602082019050611451600083018461142d565b92915050565b6000604051905090565b600080fd5b600080fd5b600080fd5b600080fd5b6000601f19601f8301169050919050565b7f4e487b7100000000000000000000000000000000000000000000000000000000600052604160045260246000fd5b6114be82611475565b810181811067ffffffffffffffff821117156114dd576114dc611486565b5b80604052505050565b60006114f0611457565b90506114fc82826114b5565b919050565b600067ffffffffffffffff82111561151c5761151b611486565b5b61152582611475565b9050602081019050919050565b82818337600083830152505050565b600061155461154f84611501565b6114e6565b9050828152602081018484840111156115705761156f611470565b5b61157b848285611532565b509392505050565b600082601f8301126115985761159761146b565b5b81356115a8848260208601611541565b91505092915050565b6000602082840312156115c7576115c6611461565b5b600082013567ffffffffffffffff8111156115e5576115e4611466565b5b6115f184828501611583565b91505092915050565b60008115159050919050565b61160f816115fa565b82525050565b600060208201905061162a6000830184611606565b92915050565b600081519050919050565b600082825260208201905092915050565b60005b8381101561166a57808201518184015260208101905061164f565b60008484015250505050565b600061168182611630565b61168b818561163b565b935061169b81856020860161164c565b6116a481611475565b840191505092915050565b600060808301600083015184820360008601526116cc8282611676565b915050602083015184820360208601526116e68282611676565b915050604083015184820360408601526117008282611676565b9150506060830151848203606086015261171a8282611676565b9150508091505092915050565b6000602082019050818103600083015261174181846116af565b905092915050565b61175281611423565b811461175d57600080fd5b50565b60008135905061176f81611749565b92915050565b60008060006060848603121561178e5761178d611461565b5b600061179c86828701611760565b935050602084013567ffffffffffffffff8111156117bd576117bc611466565b5b6117c986828701611583565b925050604084013567ffffffffffffffff8111156117ea576117e9611466565b5b6117f686828701611583565b9150509250925092565b60006020828403121561181657611815611461565b5b600061182484828501611760565b91505092915050565b6000806000806080858703121561184757611846611461565b5b600085013567ffffffffffffffff81111561186557611864611466565b5b61187187828801611583565b945050602085013567ffffffffffffffff81111561189257611891611466565b5b61189e87828801611583565b935050604085013567ffffffffffffffff8111156118bf576118be611466565b5b6118cb87828801611583565b925050606085013567ffffffffffffffff8111156118ec576118eb611466565b5b6118f887828801611583565b91505092959194509250565b600081519050919050565b600082825260208201905092915050565b6000819050602082019050919050565b6000608083016000830151848203600086015261194d8282611676565b915050602083015184820360208601526119678282611676565b915050604083015184820360408601526119818282611676565b9150506060830151848203606086015261199b8282611676565b9150508091505092915050565b600073ffffffffffffffffffffffffffffffffffffffff82169050919050565b60006119d3826119a8565b9050919050565b6119e3816119c8565b82525050565b60006080830160008301518482036000860152611a068282611930565b91505060208301518482036020860152611a208282611676565b91505060408301518482036040860152611a3a8282611676565b9150506060830151611a4f60608601826119da565b508091505092915050565b6000611a6683836119e9565b905092915050565b6000602082019050919050565b6000611a8682611904565b611a90818561190f565b935083602082028501611aa285611920565b8060005b85811015611ade5784840389528151611abf8582611a5a565b9450611aca83611a6e565b925060208a01995050600181019050611aa6565b50829750879550505050505092915050565b60006020820190508181036000830152611b0a8184611a7b565b905092915050565b60008060408385031215611b2957611b28611461565b5b6000611b3785828601611760565b9250506020611b4885828601611760565b9150509250929050565b600082825260208201905092915050565b6000611b6e82611630565b611b788185611b52565b9350611b8881856020860161164c565b611b9181611475565b840191505092915050565b611ba5816119c8565b82525050565b60006080820190508181036000830152611bc581876116af565b90508181036020830152611bd98186611b63565b90508181036040830152611bed8185611b63565b9050611bfc6060830184611b9c565b95945050505050565b7f4e487b7100000000000000000000000000000000000000000000000000000000600052602260045260246000fd5b60006002820490506001821680611c4c57607f821691505b602082108103611c5f57611c5e611c05565b5b50919050565b600081905092915050565b60008190508160005260206000209050919050565b60008154611c9281611c34565b611c9c8186611c65565b94506001821660008114611cb75760018114611ccc57611cff565b60ff1983168652811515820286019350611cff565b611cd585611c70565b60005b83811015611cf757815481890152600182019150602081019050611cd8565b838801955050505b50505092915050565b6000611d148284611c85565b915081905092915050565b6000611d2a82611630565b611d348185611c65565b9350611d4481856020860161164c565b80840191505092915050565b6000611d5c8284611d1f565b915081905092915050565b60006020601f8301049050919050565b600082821b905092915050565b600060088302611db47fffffffffffffffffffffffffffffffffffffffffffffffffffffffffffffffff82611d77565b611dbe8683611d77565b95508019841693508086168417925050509392505050565b6000819050919050565b6000611dfb611df6611df184611423565b611dd6565b611423565b9050919050565b6000819050919050565b611e1583611de0565b611e29611e2182611e02565b848454611d84565b825550505050565b600090565b611e3e611e31565b611e49818484611e0c565b505050565b5b81811015611e6d57611e62600082611e36565b600181019050611e4f565b5050565b601f821115611eb257611e8381611c70565b611e8c84611d67565b81016020851015611e9b578190505b611eaf611ea785611d67565b830182611e4e565b50505b505050565b600082821c905092915050565b6000611ed560001984600802611eb7565b1980831691505092915050565b6000611eee8383611ec4565b9150826002028217905092915050565b611f0782611630565b67ffffffffffffffff811115611f2057611f1f611486565b5b611f2a8254611c34565b611f35828285611e71565b600060209050601f831160018114611f685760008415611f56578287015190505b611f608582611ee2565b865550611fc8565b601f198416611f7686611c70565b60005b82811015611f9e57848901518255600182019150602085019450602081019050611f79565b86831015611fbb5784890151611fb7601f891682611ec4565b8355505b6001600288020188555050505b505050505050565b7f496e76616c69642050726f6475637420436f6465000000000000000000000000600082015250565b6000612006601483611b52565b915061201182611fd0565b602082019050919050565b6000602082019050818103600083015261203581611ff9565b9050919050565b7f4e6f74206174204c6f636174696f6e0000000000000000000000000000000000600082015250565b6000612072600f83611b52565b915061207d8261203c565b602082019050919050565b600060208201905081810360008301526120a181612065565b9050919050565b7f4e487b7100000000000000000000000000000000000000000000000000000000600052601160045260246000fd5b60006120e282611423565b91506120ed83611423565b92508282026120fb81611423565b91508282048414831517612112576121116120a8565b5b5092915050565b600061212482611423565b915061212f83611423565b9250828201905080821115612147576121466120a8565b5b92915050565b600061215882611423565b91507fffffffffffffffffffffffffffffffffffffffffffffffffffffffffffffffff820361218a576121896120a8565b5b600182019050919050565b60006121a082611423565b91506121ab83611423565b92508282039050818111156121c3576121c26120a8565b5b9291505056fea2646970667358221220f42e554c31eacd8b275ce34b061686f957f78b343133638ffd85bcf29374c38c64736f6c634300081100332432612431322452454a4879326150415359574558556456776a705a7535786252324f546c75647376713469596f5061702f6b315555626f35536a79466f6f64207061737465206f7220737072656164206d6164652066726f6d2067726f756e642c206472792d726f6173746564207065616e7574732e4d6164652066726f6d2061206d697874757265206f66206672756974732061726520757375616c6c792063616c6c656420636f6e7365727665732c20657370656369616c6c79207768656e207468657920696e636c75646520636974727573206672756974732c206e7574732c2072616973696e732c206f7220636f636f6e75742e",
  "linkReferences": {},
  "deployedLinkReferences": {}
}