{
  "_format": "hh-sol-artifact-1",
  "contractName": "SupplyChain",
  "sourceName": "contracts/SupplyChain.sol",
  "abi": [
    {
      "inputs": [],
      "name": "GetCount",
      "outputs": [
        {
          "internalType": "uint256",
          "name": "",
          "type": "uint256"
        }
      ],
      "stateMutability": "view",
      "type": "function"
    },
    {
      "inputs": [],
      "name": "count",
      "outputs": [
        {
          "internalType": "uint256",
          "name": "",
          "type": "uint256"
        }
      ],
      "stateMutability": "view",
      "type": "function"
    }
  ],
  "bytecode": "0x608060405234801561001057600080fd5b50610160806100206000396000f3fe608060405234801561001057600080fd5b50600436106100365760003560e01c806306661abd1461003b5780630ab9397114610059575b600080fd5b610043610077565b60405161005091906100ac565b60405180910390f35b61006161007d565b60405161006e91906100ac565b60405180910390f35b60005481565b6000600160005461008e91906100f6565b905090565b6000819050919050565b6100a681610093565b82525050565b60006020820190506100c1600083018461009d565b92915050565b7f4e487b7100000000000000000000000000000000000000000000000000000000600052601160045260246000fd5b600061010182610093565b915061010c83610093565b9250828201905080821115610124576101236100c7565b5b9291505056fea2646970667358221220cc5b5a4469159fa28e9ae524c7e032a2321385fc79fe095cdee0942215edaa8a64736f6c63430008110033",
  "linkReferences": {},
  "deployedLinkReferences": {}
}