{
  "_format": "hh-sol-artifact-1",
  "contractName": "SupplyChain",
  "sourceName": "contracts/SupplyChain.sol",
  "abi": [
    {
      "anonymous": false,
      "inputs": [],
      "name": "ChainUpdated",
      "type": "event"
    },
    {
      "inputs": [
        {
          "internalType": "uint256",
          "name": "_id",
          "type": "uint256"
        }
      ],
      "name": "CreateProduct",
      "outputs": [],
      "stateMutability": "nonpayable",
      "type": "function"
    },
    {
      "inputs": [
        {
          "internalType": "uint256",
          "name": "_id",
          "type": "uint256"
        }
      ],
      "name": "Donate",
      "outputs": [],
      "stateMutability": "payable",
      "type": "function"
    },
    {
      "inputs": [
        {
          "internalType": "uint256",
          "name": "_id",
          "type": "uint256"
        }
      ],
      "name": "GetDonations",
      "outputs": [
        {
          "components": [
            {
              "internalType": "uint256",
              "name": "donations",
              "type": "uint256"
            },
            {
              "internalType": "uint256",
              "name": "donationCount",
              "type": "uint256"
            },
            {
              "components": [
                {
                  "internalType": "address",
                  "name": "donatorAddress",
                  "type": "address"
                },
                {
                  "internalType": "uint256",
                  "name": "amount",
                  "type": "uint256"
                }
              ],
              "internalType": "struct SupplyChain.Donator[]",
              "name": "donators",
              "type": "tuple[]"
            }
          ],
          "internalType": "struct SupplyChain.Funds",
          "name": "",
          "type": "tuple"
        }
      ],
      "stateMutability": "view",
      "type": "function"
    },
    {
      "inputs": [
        {
          "internalType": "uint256",
          "name": "_id",
          "type": "uint256"
        }
      ],
      "name": "GetProductCode",
      "outputs": [
        {
          "internalType": "uint256",
          "name": "",
          "type": "uint256"
        }
      ],
      "stateMutability": "view",
      "type": "function"
    },
    {
      "inputs": [
        {
          "internalType": "uint256",
          "name": "_prodCode",
          "type": "uint256"
        }
      ],
      "name": "GetSupplyChain",
      "outputs": [
        {
          "components": [
            {
              "components": [
                {
                  "internalType": "uint256",
                  "name": "id",
                  "type": "uint256"
                },
                {
                  "internalType": "string",
                  "name": "userType",
                  "type": "string"
                },
                {
                  "internalType": "string",
                  "name": "name",
                  "type": "string"
                },
                {
                  "internalType": "string",
                  "name": "email",
                  "type": "string"
                },
                {
                  "internalType": "string",
                  "name": "phone",
                  "type": "string"
                },
                {
                  "internalType": "string",
                  "name": "location",
                  "type": "string"
                },
                {
                  "internalType": "string",
                  "name": "fileLink",
                  "type": "string"
                }
              ],
              "internalType": "struct SupplyChain.User",
              "name": "userInfo",
              "type": "tuple"
            },
            {
              "internalType": "string",
              "name": "prodName",
              "type": "string"
            },
            {
              "internalType": "string",
              "name": "processDesc",
              "type": "string"
            },
            {
              "internalType": "address",
              "name": "nodeAddress",
              "type": "address"
            },
            {
              "internalType": "uint256",
              "name": "timestamp",
              "type": "uint256"
            }
          ],
          "internalType": "struct SupplyChain.Node[]",
          "name": "",
          "type": "tuple[]"
        }
      ],
      "stateMutability": "view",
      "type": "function"
    },
    {
      "inputs": [],
      "name": "GetUser",
      "outputs": [
        {
          "components": [
            {
              "internalType": "uint256",
              "name": "id",
              "type": "uint256"
            },
            {
              "internalType": "string",
              "name": "userType",
              "type": "string"
            },
            {
              "internalType": "string",
              "name": "name",
              "type": "string"
            },
            {
              "internalType": "string",
              "name": "email",
              "type": "string"
            },
            {
              "internalType": "string",
              "name": "phone",
              "type": "string"
            },
            {
              "internalType": "string",
              "name": "location",
              "type": "string"
            },
            {
              "internalType": "string",
              "name": "fileLink",
              "type": "string"
            }
          ],
          "internalType": "struct SupplyChain.User",
          "name": "",
          "type": "tuple"
        }
      ],
      "stateMutability": "view",
      "type": "function"
    },
    {
      "inputs": [
        {
          "internalType": "string",
          "name": "_password",
          "type": "string"
        }
      ],
      "name": "Login",
      "outputs": [
        {
          "internalType": "bool",
          "name": "",
          "type": "bool"
        }
      ],
      "stateMutability": "view",
      "type": "function"
    },
    {
      "inputs": [
        {
          "internalType": "string",
          "name": "_location",
          "type": "string"
        }
      ],
      "name": "SetTracker",
      "outputs": [],
      "stateMutability": "nonpayable",
      "type": "function"
    },
    {
      "inputs": [
        {
          "internalType": "uint256",
          "name": "_prodCode",
          "type": "uint256"
        },
        {
          "internalType": "string",
          "name": "_prodDesc",
          "type": "string"
        }
      ],
      "name": "UpdateSupplyChain",
      "outputs": [],
      "stateMutability": "nonpayable",
      "type": "function"
    },
    {
      "inputs": [
        {
          "internalType": "string",
          "name": "_userType",
          "type": "string"
        },
        {
          "internalType": "string",
          "name": "_name",
          "type": "string"
        },
        {
          "internalType": "string",
          "name": "_email",
          "type": "string"
        },
        {
          "internalType": "string",
          "name": "_phone",
          "type": "string"
        },
        {
          "internalType": "string",
          "name": "_location",
          "type": "string"
        },
        {
          "internalType": "string",
          "name": "_fileLink",
          "type": "string"
        }
      ],
      "name": "UpdateUser",
      "outputs": [],
      "stateMutability": "nonpayable",
      "type": "function"
    },
    {
      "inputs": [
        {
          "internalType": "uint256",
          "name": "",
          "type": "uint256"
        }
      ],
      "name": "funds",
      "outputs": [
        {
          "internalType": "uint256",
          "name": "donations",
          "type": "uint256"
        },
        {
          "internalType": "uint256",
          "name": "donationCount",
          "type": "uint256"
        }
      ],
      "stateMutability": "view",
      "type": "function"
    },
    {
      "inputs": [],
      "name": "prodCount",
      "outputs": [
        {
          "internalType": "uint256",
          "name": "",
          "type": "uint256"
        }
      ],
      "stateMutability": "view",
      "type": "function"
    },
    {
      "inputs": [
        {
          "internalType": "uint256",
          "name": "",
          "type": "uint256"
        },
        {
          "internalType": "uint256",
          "name": "",
          "type": "uint256"
        }
      ],
      "name": "supplyChain",
      "outputs": [
        {
          "components": [
            {
              "internalType": "uint256",
              "name": "id",
              "type": "uint256"
            },
            {
              "internalType": "string",
              "name": "userType",
              "type": "string"
            },
            {
              "internalType": "string",
              "name": "name",
              "type": "string"
            },
            {
              "internalType": "string",
              "name": "email",
              "type": "string"
            },
            {
              "internalType": "string",
              "name": "phone",
              "type": "string"
            },
            {
              "internalType": "string",
              "name": "location",
              "type": "string"
            },
            {
              "internalType": "string",
              "name": "fileLink",
              "type": "string"
            }
          ],
          "internalType": "struct SupplyChain.User",
          "name": "userInfo",
          "type": "tuple"
        },
        {
          "internalType": "string",
          "name": "prodName",
          "type": "string"
        },
        {
          "internalType": "string",
          "name": "processDesc",
          "type": "string"
        },
        {
          "internalType": "address",
          "name": "nodeAddress",
          "type": "address"
        },
        {
          "internalType": "uint256",
          "name": "timestamp",
          "type": "uint256"
        }
      ],
      "stateMutability": "view",
      "type": "function"
    },
    {
      "inputs": [],
      "name": "userCount",
      "outputs": [
        {
          "internalType": "uint256",
          "name": "",
          "type": "uint256"
        }
      ],
      "stateMutability": "view",
      "type": "function"
    }
  ],
  "bytecode": "0x6080604052633b9aca006002556040518060600160405280603c815260200162003650603c9139600390816200003691906200048b565b506040518060400160405280600b81526020017f466c6f7269646120233237000000000000000000000000000000000000000000815250600490816200007d91906200048b565b5060405180604001604052806040518060400160405280600d81526020017f5065616e7574204275747465720000000000000000000000000000000000000081525081526020016040518060400160405280600f81526020017f4d69786564204672756974204a616d000000000000000000000000000000000081525081525060059060026200010f92919062000124565b503480156200011d57600080fd5b5062000572565b82805482825590600052602060002090810192821562000171579160200282015b82811115620001705782518290816200015f91906200048b565b509160200191906001019062000145565b5b50905062000180919062000184565b5090565b5b80821115620001a857600081816200019e9190620001ac565b5060010162000185565b5090565b508054620001ba906200027a565b6000825580601f10620001ce5750620001ef565b601f016020900490600052602060002090810190620001ee9190620001f2565b5b50565b5b808211156200020d576000816000905550600101620001f3565b5090565b600081519050919050565b7f4e487b7100000000000000000000000000000000000000000000000000000000600052604160045260246000fd5b7f4e487b7100000000000000000000000000000000000000000000000000000000600052602260045260246000fd5b600060028204905060018216806200029357607f821691505b602082108103620002a957620002a86200024b565b5b50919050565b60008190508160005260206000209050919050565b60006020601f8301049050919050565b600082821b905092915050565b600060088302620003137fffffffffffffffffffffffffffffffffffffffffffffffffffffffffffffffff82620002d4565b6200031f8683620002d4565b95508019841693508086168417925050509392505050565b6000819050919050565b6000819050919050565b60006200036c62000366620003608462000337565b62000341565b62000337565b9050919050565b6000819050919050565b62000388836200034b565b620003a0620003978262000373565b848454620002e1565b825550505050565b600090565b620003b7620003a8565b620003c48184846200037d565b505050565b5b81811015620003ec57620003e0600082620003ad565b600181019050620003ca565b5050565b601f8211156200043b576200040581620002af565b6200041084620002c4565b8101602085101562000420578190505b620004386200042f85620002c4565b830182620003c9565b50505b505050565b600082821c905092915050565b6000620004606000198460080262000440565b1980831691505092915050565b60006200047b83836200044d565b9150826002028217905092915050565b620004968262000211565b67ffffffffffffffff811115620004b257620004b16200021c565b5b620004be82546200027a565b620004cb828285620003f0565b600060209050601f831160018114620005035760008415620004ee578287015190505b620004fa85826200046d565b8655506200056a565b601f1984166200051386620002af565b60005b828110156200053d5784890151825560018201915060208501945060208101905062000516565b868310156200055d578489015162000559601f8916826200044d565b8355505b6001600288020188555050505b505050505050565b6130ce80620005826000396000f3fe6080604052600436106100dd5760003560e01c80637b8e88951161007f578063d20c880f11610059578063d20c880f146102b2578063db5a43bf146102db578063e7e6c34414610318578063f4d0f1c014610359576100dd565b80637b8e88951461022257806387f59ef314610260578063ae24ba5514610289576100dd565b80633257b590116100bb5780633257b5901461017557806333ac2627146101b25780635b090b82146101ce5780635ee0f654146101f7576100dd565b8063017e19a3146100e257806307973ccf1461010d5780630b2d892414610138575b600080fd5b3480156100ee57600080fd5b506100f7610396565b6040516101049190611f28565b60405180910390f35b34801561011957600080fd5b5061012261039c565b60405161012f9190611f28565b60405180910390f35b34801561014457600080fd5b5061015f600480360381019061015a919061209d565b6103a2565b60405161016c9190612101565b60405180910390f35b34801561018157600080fd5b5061019c60048036038101906101979190612148565b61040b565b6040516101a991906122f3565b60405180910390f35b6101cc60048036038101906101c79190612148565b61050b565b005b3480156101da57600080fd5b506101f560048036038101906101f09190612315565b61062a565b005b34801561020357600080fd5b5061020c610d75565b60405161021991906124af565b60405180910390f35b34801561022e57600080fd5b5061024960048036038101906102449190612148565b611142565b6040516102579291906124d1565b60405180910390f35b34801561026c57600080fd5b506102876004803603810190610282919061209d565b611166565b005b34801561029557600080fd5b506102b060048036038101906102ab9190612148565b611179565b005b3480156102be57600080fd5b506102d960048036038101906102d491906124fa565b611236565b005b3480156102e757600080fd5b5061030260048036038101906102fd9190612148565b6113ff565b60405161030f9190612834565b60405180910390f35b34801561032457600080fd5b5061033f600480360381019061033a9190612856565b61197f565b6040516103509594939291906128ef565b60405180910390f35b34801561036557600080fd5b50610380600480360381019061037b9190612148565b611e82565b60405161038d9190611f28565b60405180910390f35b60015481565b60005481565b600060036040516020016103b69190612a5a565b60405160208183030381529060405280519060200120826040516020016103dd9190612aa2565b60405160208183030381529060405280519060200120036104015760019050610406565b600090505b919050565b610413611eb1565b600b6000838152602001908152602001600020604051806060016040529081600082015481526020016001820154815260200160028201805480602002602001604051908101604052809291908181526020016000905b828210156104fc57838290600052602060002090600202016040518060400160405290816000820160009054906101000a900473ffffffffffffffffffffffffffffffffffffffff1673ffffffffffffffffffffffffffffffffffffffff1673ffffffffffffffffffffffffffffffffffffffff1681526020016001820154815250508152602001906001019061046a565b50505050815250509050919050565b34600b600083815260200190815260200160002060000160008282546105319190612ae8565b92505081905550600b6000828152602001908152602001600020600101600081548092919061055f90612b1c565b9190505550600060405180604001604052803373ffffffffffffffffffffffffffffffffffffffff168152602001348152509050600b600083815260200190815260200160002060020181908060018154018082558091505060019003906000526020600020906002020160009091909190915060008201518160000160006101000a81548173ffffffffffffffffffffffffffffffffffffffff021916908373ffffffffffffffffffffffffffffffffffffffff1602179055506020820151816001015550505050565b6008600083815260200190815260200160002060009054906101000a900460ff1661068a576040517f08c379a000000000000000000000000000000000000000000000000000000000815260040161068190612bb0565b60405180910390fd5b600460405160200161069c9190612a5a565b60405160208183030381529060405280519060200120600960003373ffffffffffffffffffffffffffffffffffffffff1673ffffffffffffffffffffffffffffffffffffffff1681526020019081526020016000206005016040516020016107049190612a5a565b604051602081830303815290604052805190602001201461075a576040517f08c379a000000000000000000000000000000000000000000000000000000000815260040161075190612c1c565b60405180910390fd5b600a60008381526020019081526020016000206040518060a00160405280600960003373ffffffffffffffffffffffffffffffffffffffff1673ffffffffffffffffffffffffffffffffffffffff1681526020019081526020016000206040518060e0016040529081600082015481526020016001820180546107dc90612986565b80601f016020809104026020016040519081016040528092919081815260200182805461080890612986565b80156108555780601f1061082a57610100808354040283529160200191610855565b820191906000526020600020905b81548152906001019060200180831161083857829003601f168201915b5050505050815260200160028201805461086e90612986565b80601f016020809104026020016040519081016040528092919081815260200182805461089a90612986565b80156108e75780601f106108bc576101008083540402835291602001916108e7565b820191906000526020600020905b8154815290600101906020018083116108ca57829003601f168201915b5050505050815260200160038201805461090090612986565b80601f016020809104026020016040519081016040528092919081815260200182805461092c90612986565b80156109795780601f1061094e57610100808354040283529160200191610979565b820191906000526020600020905b81548152906001019060200180831161095c57829003601f168201915b5050505050815260200160048201805461099290612986565b80601f01602080910402602001604051908101604052809291908181526020018280546109be90612986565b8015610a0b5780601f106109e057610100808354040283529160200191610a0b565b820191906000526020600020905b8154815290600101906020018083116109ee57829003601f168201915b50505050508152602001600582018054610a2490612986565b80601f0160208091040260200160405190810160405280929190818152602001828054610a5090612986565b8015610a9d5780601f10610a7257610100808354040283529160200191610a9d565b820191906000526020600020905b815481529060010190602001808311610a8057829003601f168201915b50505050508152602001600682018054610ab690612986565b80601f0160208091040260200160405190810160405280929190818152602001828054610ae290612986565b8015610b2f5780601f10610b0457610100808354040283529160200191610b2f565b820191906000526020600020905b815481529060010190602001808311610b1257829003601f168201915b5050505050815250508152602001600660008681526020019081526020016000208054610b5b90612986565b80601f0160208091040260200160405190810160405280929190818152602001828054610b8790612986565b8015610bd45780601f10610ba957610100808354040283529160200191610bd4565b820191906000526020600020905b815481529060010190602001808311610bb757829003601f168201915b505050505081526020018381526020013373ffffffffffffffffffffffffffffffffffffffff1681526020014281525090806001815401808255809150506001900390600052602060002090600b0201600090919091909150600082015181600001600082015181600001556020820151816001019081610c559190612dd3565b506040820151816002019081610c6b9190612dd3565b506060820151816003019081610c819190612dd3565b506080820151816004019081610c979190612dd3565b5060a0820151816005019081610cad9190612dd3565b5060c0820151816006019081610cc39190612dd3565b5050506020820151816007019081610cdb9190612dd3565b506040820151816008019081610cf19190612dd3565b5060608201518160090160006101000a81548173ffffffffffffffffffffffffffffffffffffffff021916908373ffffffffffffffffffffffffffffffffffffffff160217905550608082015181600a015550507f462009532ec6130c0e39e10d07ecc443cafe21b4352444736001f665528346b360405160405180910390a15050565b610d7d611ed2565b600960003373ffffffffffffffffffffffffffffffffffffffff1673ffffffffffffffffffffffffffffffffffffffff1681526020019081526020016000206040518060e001604052908160008201548152602001600182018054610de190612986565b80601f0160208091040260200160405190810160405280929190818152602001828054610e0d90612986565b8015610e5a5780601f10610e2f57610100808354040283529160200191610e5a565b820191906000526020600020905b815481529060010190602001808311610e3d57829003601f168201915b50505050508152602001600282018054610e7390612986565b80601f0160208091040260200160405190810160405280929190818152602001828054610e9f90612986565b8015610eec5780601f10610ec157610100808354040283529160200191610eec565b820191906000526020600020905b815481529060010190602001808311610ecf57829003601f168201915b50505050508152602001600382018054610f0590612986565b80601f0160208091040260200160405190810160405280929190818152602001828054610f3190612986565b8015610f7e5780601f10610f5357610100808354040283529160200191610f7e565b820191906000526020600020905b815481529060010190602001808311610f6157829003601f168201915b50505050508152602001600482018054610f9790612986565b80601f0160208091040260200160405190810160405280929190818152602001828054610fc390612986565b80156110105780601f10610fe557610100808354040283529160200191611010565b820191906000526020600020905b815481529060010190602001808311610ff357829003601f168201915b5050505050815260200160058201805461102990612986565b80601f016020809104026020016040519081016040528092919081815260200182805461105590612986565b80156110a25780601f10611077576101008083540402835291602001916110a2565b820191906000526020600020905b81548152906001019060200180831161108557829003601f168201915b505050505081526020016006820180546110bb90612986565b80601f01602080910402602001604051908101604052809291908181526020018280546110e790612986565b80156111345780601f1061110957610100808354040283529160200191611134565b820191906000526020600020905b81548152906001019060200180831161111757829003601f168201915b505050505081525050905090565b600b6020528060005260406000206000915090508060000154908060010154905082565b80600490816111759190612dd3565b5050565b60006001546002548361118c9190612ea5565b6111969190612ae8565b905081600760008381526020019081526020016000208190555060016008600083815260200190815260200160002060006101000a81548160ff021916908315150217905550600582815481106111f0576111ef612ee7565b5b906000526020600020016006600083815260200190815260200160002090816112199190612f41565b506001600081548092919061122d90612b1c565b91905055505050565b6040516020016112459061304f565b60405160208183030381529060405280519060200120600960003373ffffffffffffffffffffffffffffffffffffffff1673ffffffffffffffffffffffffffffffffffffffff1681526020019081526020016000206002016040516020016112ad9190612a5a565b60405160208183030381529060405280519060200120036112e0576000808154809291906112da90612b1c565b91905055505b60006040518060e0016040528060016000546112fc9190613064565b815260200188815260200187815260200186815260200185815260200184815260200183815250905080600960003373ffffffffffffffffffffffffffffffffffffffff1673ffffffffffffffffffffffffffffffffffffffff1681526020019081526020016000206000820151816000015560208201518160010190816113849190612dd3565b50604082015181600201908161139a9190612dd3565b5060608201518160030190816113b09190612dd3565b5060808201518160040190816113c69190612dd3565b5060a08201518160050190816113dc9190612dd3565b5060c08201518160060190816113f29190612dd3565b5090505050505050505050565b6060600a6000838152602001908152602001600020805480602002602001604051908101604052809291908181526020016000905b8282101561197457838290600052602060002090600b02016040518060a0016040529081600082016040518060e00160405290816000820154815260200160018201805461148190612986565b80601f01602080910402602001604051908101604052809291908181526020018280546114ad90612986565b80156114fa5780601f106114cf576101008083540402835291602001916114fa565b820191906000526020600020905b8154815290600101906020018083116114dd57829003601f168201915b5050505050815260200160028201805461151390612986565b80601f016020809104026020016040519081016040528092919081815260200182805461153f90612986565b801561158c5780601f106115615761010080835404028352916020019161158c565b820191906000526020600020905b81548152906001019060200180831161156f57829003601f168201915b505050505081526020016003820180546115a590612986565b80601f01602080910402602001604051908101604052809291908181526020018280546115d190612986565b801561161e5780601f106115f35761010080835404028352916020019161161e565b820191906000526020600020905b81548152906001019060200180831161160157829003601f168201915b5050505050815260200160048201805461163790612986565b80601f016020809104026020016040519081016040528092919081815260200182805461166390612986565b80156116b05780601f10611685576101008083540402835291602001916116b0565b820191906000526020600020905b81548152906001019060200180831161169357829003601f168201915b505050505081526020016005820180546116c990612986565b80601f01602080910402602001604051908101604052809291908181526020018280546116f590612986565b80156117425780601f1061171757610100808354040283529160200191611742565b820191906000526020600020905b81548152906001019060200180831161172557829003601f168201915b5050505050815260200160068201805461175b90612986565b80601f016020809104026020016040519081016040528092919081815260200182805461178790612986565b80156117d45780601f106117a9576101008083540402835291602001916117d4565b820191906000526020600020905b8154815290600101906020018083116117b757829003601f168201915b50505050508152505081526020016007820180546117f190612986565b80601f016020809104026020016040519081016040528092919081815260200182805461181d90612986565b801561186a5780601f1061183f5761010080835404028352916020019161186a565b820191906000526020600020905b81548152906001019060200180831161184d57829003601f168201915b5050505050815260200160088201805461188390612986565b80601f01602080910402602001604051908101604052809291908181526020018280546118af90612986565b80156118fc5780601f106118d1576101008083540402835291602001916118fc565b820191906000526020600020905b8154815290600101906020018083116118df57829003601f168201915b505050505081526020016009820160009054906101000a900473ffffffffffffffffffffffffffffffffffffffff1673ffffffffffffffffffffffffffffffffffffffff1673ffffffffffffffffffffffffffffffffffffffff168152602001600a8201548152505081526020019060010190611434565b505050509050919050565b600a602052816000526040600020818154811061199b57600080fd5b90600052602060002090600b020160009150915050806000016040518060e0016040529081600082015481526020016001820180546119d990612986565b80601f0160208091040260200160405190810160405280929190818152602001828054611a0590612986565b8015611a525780601f10611a2757610100808354040283529160200191611a52565b820191906000526020600020905b815481529060010190602001808311611a3557829003601f168201915b50505050508152602001600282018054611a6b90612986565b80601f0160208091040260200160405190810160405280929190818152602001828054611a9790612986565b8015611ae45780601f10611ab957610100808354040283529160200191611ae4565b820191906000526020600020905b815481529060010190602001808311611ac757829003601f168201915b50505050508152602001600382018054611afd90612986565b80601f0160208091040260200160405190810160405280929190818152602001828054611b2990612986565b8015611b765780601f10611b4b57610100808354040283529160200191611b76565b820191906000526020600020905b815481529060010190602001808311611b5957829003601f168201915b50505050508152602001600482018054611b8f90612986565b80601f0160208091040260200160405190810160405280929190818152602001828054611bbb90612986565b8015611c085780601f10611bdd57610100808354040283529160200191611c08565b820191906000526020600020905b815481529060010190602001808311611beb57829003601f168201915b50505050508152602001600582018054611c2190612986565b80601f0160208091040260200160405190810160405280929190818152602001828054611c4d90612986565b8015611c9a5780601f10611c6f57610100808354040283529160200191611c9a565b820191906000526020600020905b815481529060010190602001808311611c7d57829003601f168201915b50505050508152602001600682018054611cb390612986565b80601f0160208091040260200160405190810160405280929190818152602001828054611cdf90612986565b8015611d2c5780601f10611d0157610100808354040283529160200191611d2c565b820191906000526020600020905b815481529060010190602001808311611d0f57829003601f168201915b50505050508152505090806007018054611d4590612986565b80601f0160208091040260200160405190810160405280929190818152602001828054611d7190612986565b8015611dbe5780601f10611d9357610100808354040283529160200191611dbe565b820191906000526020600020905b815481529060010190602001808311611da157829003601f168201915b505050505090806008018054611dd390612986565b80601f0160208091040260200160405190810160405280929190818152602001828054611dff90612986565b8015611e4c5780601f10611e2157610100808354040283529160200191611e4c565b820191906000526020600020905b815481529060010190602001808311611e2f57829003601f168201915b5050505050908060090160009054906101000a900473ffffffffffffffffffffffffffffffffffffffff169080600a0154905085565b600060018054611e929190613064565b60025483611ea09190612ea5565b611eaa9190612ae8565b9050919050565b60405180606001604052806000815260200160008152602001606081525090565b6040518060e00160405280600081526020016060815260200160608152602001606081526020016060815260200160608152602001606081525090565b6000819050919050565b611f2281611f0f565b82525050565b6000602082019050611f3d6000830184611f19565b92915050565b6000604051905090565b600080fd5b600080fd5b600080fd5b600080fd5b6000601f19601f8301169050919050565b7f4e487b7100000000000000000000000000000000000000000000000000000000600052604160045260246000fd5b611faa82611f61565b810181811067ffffffffffffffff82111715611fc957611fc8611f72565b5b80604052505050565b6000611fdc611f43565b9050611fe88282611fa1565b919050565b600067ffffffffffffffff82111561200857612007611f72565b5b61201182611f61565b9050602081019050919050565b82818337600083830152505050565b600061204061203b84611fed565b611fd2565b90508281526020810184848401111561205c5761205b611f5c565b5b61206784828561201e565b509392505050565b600082601f83011261208457612083611f57565b5b813561209484826020860161202d565b91505092915050565b6000602082840312156120b3576120b2611f4d565b5b600082013567ffffffffffffffff8111156120d1576120d0611f52565b5b6120dd8482850161206f565b91505092915050565b60008115159050919050565b6120fb816120e6565b82525050565b600060208201905061211660008301846120f2565b92915050565b61212581611f0f565b811461213057600080fd5b50565b6000813590506121428161211c565b92915050565b60006020828403121561215e5761215d611f4d565b5b600061216c84828501612133565b91505092915050565b61217e81611f0f565b82525050565b600081519050919050565b600082825260208201905092915050565b6000819050602082019050919050565b600073ffffffffffffffffffffffffffffffffffffffff82169050919050565b60006121db826121b0565b9050919050565b6121eb816121d0565b82525050565b60408201600082015161220760008501826121e2565b50602082015161221a6020850182612175565b50505050565b600061222c83836121f1565b60408301905092915050565b6000602082019050919050565b600061225082612184565b61225a818561218f565b9350612265836121a0565b8060005b8381101561229657815161227d8882612220565b975061228883612238565b925050600181019050612269565b5085935050505092915050565b60006060830160008301516122bb6000860182612175565b5060208301516122ce6020860182612175565b50604083015184820360408601526122e68282612245565b9150508091505092915050565b6000602082019050818103600083015261230d81846122a3565b905092915050565b6000806040838503121561232c5761232b611f4d565b5b600061233a85828601612133565b925050602083013567ffffffffffffffff81111561235b5761235a611f52565b5b6123678582860161206f565b9150509250929050565b600081519050919050565b600082825260208201905092915050565b60005b838110156123ab578082015181840152602081019050612390565b60008484015250505050565b60006123c282612371565b6123cc818561237c565b93506123dc81856020860161238d565b6123e581611f61565b840191505092915050565b600060e0830160008301516124086000860182612175565b506020830151848203602086015261242082826123b7565b9150506040830151848203604086015261243a82826123b7565b9150506060830151848203606086015261245482826123b7565b9150506080830151848203608086015261246e82826123b7565b91505060a083015184820360a086015261248882826123b7565b91505060c083015184820360c08601526124a282826123b7565b9150508091505092915050565b600060208201905081810360008301526124c981846123f0565b905092915050565b60006040820190506124e66000830185611f19565b6124f36020830184611f19565b9392505050565b60008060008060008060c0878903121561251757612516611f4d565b5b600087013567ffffffffffffffff81111561253557612534611f52565b5b61254189828a0161206f565b965050602087013567ffffffffffffffff81111561256257612561611f52565b5b61256e89828a0161206f565b955050604087013567ffffffffffffffff81111561258f5761258e611f52565b5b61259b89828a0161206f565b945050606087013567ffffffffffffffff8111156125bc576125bb611f52565b5b6125c889828a0161206f565b935050608087013567ffffffffffffffff8111156125e9576125e8611f52565b5b6125f589828a0161206f565b92505060a087013567ffffffffffffffff81111561261657612615611f52565b5b61262289828a0161206f565b9150509295509295509295565b600081519050919050565b600082825260208201905092915050565b6000819050602082019050919050565b600060e0830160008301516126736000860182612175565b506020830151848203602086015261268b82826123b7565b915050604083015184820360408601526126a582826123b7565b915050606083015184820360608601526126bf82826123b7565b915050608083015184820360808601526126d982826123b7565b91505060a083015184820360a08601526126f382826123b7565b91505060c083015184820360c086015261270d82826123b7565b9150508091505092915050565b600060a0830160008301518482036000860152612737828261265b565b9150506020830151848203602086015261275182826123b7565b9150506040830151848203604086015261276b82826123b7565b915050606083015161278060608601826121e2565b5060808301516127936080860182612175565b508091505092915050565b60006127aa838361271a565b905092915050565b6000602082019050919050565b60006127ca8261262f565b6127d4818561263a565b9350836020820285016127e68561264b565b8060005b858110156128225784840389528151612803858261279e565b945061280e836127b2565b925060208a019950506001810190506127ea565b50829750879550505050505092915050565b6000602082019050818103600083015261284e81846127bf565b905092915050565b6000806040838503121561286d5761286c611f4d565b5b600061287b85828601612133565b925050602061288c85828601612133565b9150509250929050565b600082825260208201905092915050565b60006128b282612371565b6128bc8185612896565b93506128cc81856020860161238d565b6128d581611f61565b840191505092915050565b6128e9816121d0565b82525050565b600060a082019050818103600083015261290981886123f0565b9050818103602083015261291d81876128a7565b9050818103604083015261293181866128a7565b905061294060608301856128e0565b61294d6080830184611f19565b9695505050505050565b7f4e487b7100000000000000000000000000000000000000000000000000000000600052602260045260246000fd5b6000600282049050600182168061299e57607f821691505b6020821081036129b1576129b0612957565b5b50919050565b600081905092915050565b60008190508160005260206000209050919050565b600081546129e481612986565b6129ee81866129b7565b94506001821660008114612a095760018114612a1e57612a51565b60ff1983168652811515820286019350612a51565b612a27856129c2565b60005b83811015612a4957815481890152600182019150602081019050612a2a565b838801955050505b50505092915050565b6000612a6682846129d7565b915081905092915050565b6000612a7c82612371565b612a8681856129b7565b9350612a9681856020860161238d565b80840191505092915050565b6000612aae8284612a71565b915081905092915050565b7f4e487b7100000000000000000000000000000000000000000000000000000000600052601160045260246000fd5b6000612af382611f0f565b9150612afe83611f0f565b9250828201905080821115612b1657612b15612ab9565b5b92915050565b6000612b2782611f0f565b91507fffffffffffffffffffffffffffffffffffffffffffffffffffffffffffffffff8203612b5957612b58612ab9565b5b600182019050919050565b7f496e76616c69642050726f6475637420436f6465000000000000000000000000600082015250565b6000612b9a601483612896565b9150612ba582612b64565b602082019050919050565b60006020820190508181036000830152612bc981612b8d565b9050919050565b7f4e6f74206174204c6f636174696f6e0000000000000000000000000000000000600082015250565b6000612c06600f83612896565b9150612c1182612bd0565b602082019050919050565b60006020820190508181036000830152612c3581612bf9565b9050919050565b60006020601f8301049050919050565b600082821b905092915050565b600060088302612c897fffffffffffffffffffffffffffffffffffffffffffffffffffffffffffffffff82612c4c565b612c938683612c4c565b95508019841693508086168417925050509392505050565b6000819050919050565b6000612cd0612ccb612cc684611f0f565b612cab565b611f0f565b9050919050565b6000819050919050565b612cea83612cb5565b612cfe612cf682612cd7565b848454612c59565b825550505050565b600090565b612d13612d06565b612d1e818484612ce1565b505050565b5b81811015612d4257612d37600082612d0b565b600181019050612d24565b5050565b601f821115612d8757612d58816129c2565b612d6184612c3c565b81016020851015612d70578190505b612d84612d7c85612c3c565b830182612d23565b50505b505050565b600082821c905092915050565b6000612daa60001984600802612d8c565b1980831691505092915050565b6000612dc38383612d99565b9150826002028217905092915050565b612ddc82612371565b67ffffffffffffffff811115612df557612df4611f72565b5b612dff8254612986565b612e0a828285612d46565b600060209050601f831160018114612e3d5760008415612e2b578287015190505b612e358582612db7565b865550612e9d565b601f198416612e4b866129c2565b60005b82811015612e7357848901518255600182019150602085019450602081019050612e4e565b86831015612e905784890151612e8c601f891682612d99565b8355505b6001600288020188555050505b505050505050565b6000612eb082611f0f565b9150612ebb83611f0f565b9250828202612ec981611f0f565b91508282048414831517612ee057612edf612ab9565b5b5092915050565b7f4e487b7100000000000000000000000000000000000000000000000000000000600052603260045260246000fd5b600081549050612f2581612986565b9050919050565b60008190508160005260206000209050919050565b818103612f4f575050613027565b612f5882612f16565b67ffffffffffffffff811115612f7157612f70611f72565b5b612f7b8254612986565b612f86828285612d46565b6000601f831160018114612fb55760008415612fa3578287015490505b612fad8582612db7565b865550613020565b601f198416612fc387612f2c565b9650612fce866129c2565b60005b82811015612ff657848901548255600182019150600185019450602081019050612fd1565b86831015613013578489015461300f601f891682612d99565b8355505b6001600288020188555050505b5050505050505b565b50565b60006130396000836129b7565b915061304482613029565b600082019050919050565b600061305a8261302c565b9150819050919050565b600061306f82611f0f565b915061307a83611f0f565b925082820390508181111561309257613091612ab9565b5b9291505056fea2646970667358221220b6ed5d07ad7364e9b3e9650db58d8cc3690a1b12997c94c1be130516ed5f963664736f6c634300081100332432612431322452454a4879326150415359574558556456776a705a7535786252324f546c75647376713469596f5061702f6b315555626f35536a79",
  "linkReferences": {},
  "deployedLinkReferences": {}
}