{
  "_format": "hh-sol-artifact-1",
  "contractName": "SupplyChain",
  "sourceName": "contracts/SupplyChain.sol",
  "abi": [
    {
      "inputs": [],
      "stateMutability": "nonpayable",
      "type": "constructor"
    },
    {
      "anonymous": false,
      "inputs": [],
      "name": "ChainUpdated",
      "type": "event"
    },
    {
      "inputs": [
        {
          "internalType": "uint256",
          "name": "_id",
          "type": "uint256"
        }
      ],
      "name": "CreateProduct",
      "outputs": [],
      "stateMutability": "nonpayable",
      "type": "function"
    },
    {
      "inputs": [
        {
          "internalType": "uint256",
          "name": "_id",
          "type": "uint256"
        }
      ],
      "name": "GetProductCode",
      "outputs": [
        {
          "internalType": "uint256",
          "name": "",
          "type": "uint256"
        }
      ],
      "stateMutability": "view",
      "type": "function"
    },
    {
      "inputs": [
        {
          "internalType": "uint256",
          "name": "_prodCode",
          "type": "uint256"
        }
      ],
      "name": "GetSupplyChain",
      "outputs": [
        {
          "components": [
            {
              "components": [
                {
                  "internalType": "string",
                  "name": "userType",
                  "type": "string"
                },
                {
                  "internalType": "string",
                  "name": "name",
                  "type": "string"
                },
                {
                  "internalType": "string",
                  "name": "email",
                  "type": "string"
                },
                {
                  "internalType": "string",
                  "name": "phone",
                  "type": "string"
                },
                {
                  "internalType": "string",
                  "name": "location",
                  "type": "string"
                }
              ],
              "internalType": "struct SupplyChain.User",
              "name": "userInfo",
              "type": "tuple"
            },
            {
              "internalType": "string",
              "name": "prodName",
              "type": "string"
            },
            {
              "internalType": "string",
              "name": "processDesc",
              "type": "string"
            },
            {
              "internalType": "address",
              "name": "nodeAddress",
              "type": "address"
            }
          ],
          "internalType": "struct SupplyChain.Node[]",
          "name": "",
          "type": "tuple[]"
        }
      ],
      "stateMutability": "view",
      "type": "function"
    },
    {
      "inputs": [],
      "name": "GetUser",
      "outputs": [
        {
          "components": [
            {
              "internalType": "string",
              "name": "userType",
              "type": "string"
            },
            {
              "internalType": "string",
              "name": "name",
              "type": "string"
            },
            {
              "internalType": "string",
              "name": "email",
              "type": "string"
            },
            {
              "internalType": "string",
              "name": "phone",
              "type": "string"
            },
            {
              "internalType": "string",
              "name": "location",
              "type": "string"
            }
          ],
          "internalType": "struct SupplyChain.User",
          "name": "",
          "type": "tuple"
        }
      ],
      "stateMutability": "view",
      "type": "function"
    },
    {
      "inputs": [
        {
          "internalType": "string",
          "name": "_password",
          "type": "string"
        }
      ],
      "name": "Login",
      "outputs": [
        {
          "internalType": "bool",
          "name": "",
          "type": "bool"
        }
      ],
      "stateMutability": "view",
      "type": "function"
    },
    {
      "inputs": [
        {
          "internalType": "string",
          "name": "_location",
          "type": "string"
        }
      ],
      "name": "SetTracker",
      "outputs": [],
      "stateMutability": "nonpayable",
      "type": "function"
    },
    {
      "inputs": [
        {
          "internalType": "uint256",
          "name": "_prodCode",
          "type": "uint256"
        },
        {
          "internalType": "string",
          "name": "_prodName",
          "type": "string"
        },
        {
          "internalType": "string",
          "name": "_prodDesc",
          "type": "string"
        }
      ],
      "name": "UpdateSupplyChain",
      "outputs": [],
      "stateMutability": "nonpayable",
      "type": "function"
    },
    {
      "inputs": [
        {
          "internalType": "string",
          "name": "_userType",
          "type": "string"
        },
        {
          "internalType": "string",
          "name": "_name",
          "type": "string"
        },
        {
          "internalType": "string",
          "name": "_email",
          "type": "string"
        },
        {
          "internalType": "string",
          "name": "_phone",
          "type": "string"
        },
        {
          "internalType": "string",
          "name": "_location",
          "type": "string"
        }
      ],
      "name": "UpdateUser",
      "outputs": [],
      "stateMutability": "nonpayable",
      "type": "function"
    },
    {
      "inputs": [],
      "name": "prodCount",
      "outputs": [
        {
          "internalType": "uint256",
          "name": "",
          "type": "uint256"
        }
      ],
      "stateMutability": "view",
      "type": "function"
    },
    {
      "inputs": [
        {
          "internalType": "uint256",
          "name": "",
          "type": "uint256"
        },
        {
          "internalType": "uint256",
          "name": "",
          "type": "uint256"
        }
      ],
      "name": "supplyChain",
      "outputs": [
        {
          "components": [
            {
              "internalType": "string",
              "name": "userType",
              "type": "string"
            },
            {
              "internalType": "string",
              "name": "name",
              "type": "string"
            },
            {
              "internalType": "string",
              "name": "email",
              "type": "string"
            },
            {
              "internalType": "string",
              "name": "phone",
              "type": "string"
            },
            {
              "internalType": "string",
              "name": "location",
              "type": "string"
            }
          ],
          "internalType": "struct SupplyChain.User",
          "name": "userInfo",
          "type": "tuple"
        },
        {
          "internalType": "string",
          "name": "prodName",
          "type": "string"
        },
        {
          "internalType": "string",
          "name": "processDesc",
          "type": "string"
        },
        {
          "internalType": "address",
          "name": "nodeAddress",
          "type": "address"
        }
      ],
      "stateMutability": "view",
      "type": "function"
    }
  ],
  "bytecode": "0x6080604052633b9aca006001556040518060600160405280603c815260200162002a3b603c9139600290816200003691906200045f565b506040518060400160405280600b81526020017f466c6f7269646120233237000000000000000000000000000000000000000000815250600390816200007d91906200045f565b503480156200008b57600080fd5b5060405180604001604052806040518060400160405280600d81526020017f5065616e7574204275747465720000000000000000000000000000000000000081525081526020016040518060600160405280603b815260200162002a77603b91398152506004600080815260200190815260200160002060008201518160000190816200011991906200045f565b5060208201518160010190816200013191906200045f565b5090505060405180604001604052806040518060400160405280600f81526020017f4d69786564204672756974204a616d000000000000000000000000000000000081525081526020016040518060c001604052806082815260200162002ab26082913981525060046000600181526020019081526020016000206000820151816000019081620001c391906200045f565b506020820151816001019081620001db91906200045f565b5090505062000546565b600081519050919050565b7f4e487b7100000000000000000000000000000000000000000000000000000000600052604160045260246000fd5b7f4e487b7100000000000000000000000000000000000000000000000000000000600052602260045260246000fd5b600060028204905060018216806200026757607f821691505b6020821081036200027d576200027c6200021f565b5b50919050565b60008190508160005260206000209050919050565b60006020601f8301049050919050565b600082821b905092915050565b600060088302620002e77fffffffffffffffffffffffffffffffffffffffffffffffffffffffffffffffff82620002a8565b620002f38683620002a8565b95508019841693508086168417925050509392505050565b6000819050919050565b6000819050919050565b6000620003406200033a62000334846200030b565b62000315565b6200030b565b9050919050565b6000819050919050565b6200035c836200031f565b620003746200036b8262000347565b848454620002b5565b825550505050565b600090565b6200038b6200037c565b6200039881848462000351565b505050565b5b81811015620003c057620003b460008262000381565b6001810190506200039e565b5050565b601f8211156200040f57620003d98162000283565b620003e48462000298565b81016020851015620003f4578190505b6200040c620004038562000298565b8301826200039d565b50505b505050565b600082821c905092915050565b6000620004346000198460080262000414565b1980831691505092915050565b60006200044f838362000421565b9150826002028217905092915050565b6200046a82620001e5565b67ffffffffffffffff811115620004865762000485620001f0565b5b6200049282546200024e565b6200049f828285620003c4565b600060209050601f831160018114620004d75760008415620004c2578287015190505b620004ce858262000441565b8655506200053e565b601f198416620004e78662000283565b60005b828110156200051157848901518255600182019150602085019450602081019050620004ea565b868310156200053157848901516200052d601f89168262000421565b8355505b6001600288020188555050505b505050505050565b6124e580620005566000396000f3fe608060405234801561001057600080fd5b506004361061009e5760003560e01c80639287404b116100665780639287404b14610147578063ae24ba5514610163578063db5a43bf1461017f578063e7e6c344146101af578063f4d0f1c0146101e25761009e565b8063017e19a3146100a35780630b2d8924146100c157806352c06635146100f15780635ee0f6541461010d57806387f59ef31461012b575b600080fd5b6100ab610212565b6040516100b891906116be565b60405180910390f35b6100db60048036038101906100d69190611833565b610218565b6040516100e89190611897565b60405180910390f35b61010b600480360381019061010691906118b2565b610281565b005b610115610365565b6040516101229190611aca565b60405180910390f35b61014560048036038101906101409190611833565b610696565b005b610161600480360381019061015c9190611b18565b6106a9565b005b61017d60048036038101906101789190611ba3565b610c8e565b005b61019960048036038101906101949190611ba3565b610d0b565b6040516101a69190611dd6565b60405180910390f35b6101c960048036038101906101c49190611df8565b6111e5565b6040516101d99493929190611e91565b60405180910390f35b6101fc60048036038101906101f79190611ba3565b611646565b60405161020991906116be565b60405180910390f35b60005481565b6000600260405160200161022c9190611fee565b60405160208183030381529060405280519060200120826040516020016102539190612036565b6040516020818303038152906040528051906020012003610277576001905061027c565b600090505b919050565b60006040518060a0016040528087815260200186815260200185815260200184815260200183815250905080600760003373ffffffffffffffffffffffffffffffffffffffff1673ffffffffffffffffffffffffffffffffffffffff168152602001908152602001600020600082015181600001908161030191906121e4565b50602082015181600101908161031791906121e4565b50604082015181600201908161032d91906121e4565b50606082015181600301908161034391906121e4565b50608082015181600401908161035991906121e4565b50905050505050505050565b61036d611676565b600760003373ffffffffffffffffffffffffffffffffffffffff1673ffffffffffffffffffffffffffffffffffffffff1681526020019081526020016000206040518060a00160405290816000820180546103c790611f1a565b80601f01602080910402602001604051908101604052809291908181526020018280546103f390611f1a565b80156104405780601f1061041557610100808354040283529160200191610440565b820191906000526020600020905b81548152906001019060200180831161042357829003601f168201915b5050505050815260200160018201805461045990611f1a565b80601f016020809104026020016040519081016040528092919081815260200182805461048590611f1a565b80156104d25780601f106104a7576101008083540402835291602001916104d2565b820191906000526020600020905b8154815290600101906020018083116104b557829003601f168201915b505050505081526020016002820180546104eb90611f1a565b80601f016020809104026020016040519081016040528092919081815260200182805461051790611f1a565b80156105645780601f1061053957610100808354040283529160200191610564565b820191906000526020600020905b81548152906001019060200180831161054757829003601f168201915b5050505050815260200160038201805461057d90611f1a565b80601f01602080910402602001604051908101604052809291908181526020018280546105a990611f1a565b80156105f65780601f106105cb576101008083540402835291602001916105f6565b820191906000526020600020905b8154815290600101906020018083116105d957829003601f168201915b5050505050815260200160048201805461060f90611f1a565b80601f016020809104026020016040519081016040528092919081815260200182805461063b90611f1a565b80156106885780601f1061065d57610100808354040283529160200191610688565b820191906000526020600020905b81548152906001019060200180831161066b57829003601f168201915b505050505081525050905090565b80600390816106a591906121e4565b5050565b6006600084815260200190815260200160002060009054906101000a900460ff16610709576040517f08c379a000000000000000000000000000000000000000000000000000000000815260040161070090612302565b60405180910390fd5b600360405160200161071b9190611fee565b60405160208183030381529060405280519060200120600760003373ffffffffffffffffffffffffffffffffffffffff1673ffffffffffffffffffffffffffffffffffffffff1681526020019081526020016000206004016040516020016107839190611fee565b60405160208183030381529060405280519060200120146107d9576040517f08c379a00000000000000000000000000000000000000000000000000000000081526004016107d09061236e565b60405180910390fd5b600860008481526020019081526020016000206040518060800160405280600760003373ffffffffffffffffffffffffffffffffffffffff1673ffffffffffffffffffffffffffffffffffffffff1681526020019081526020016000206040518060a001604052908160008201805461085190611f1a565b80601f016020809104026020016040519081016040528092919081815260200182805461087d90611f1a565b80156108ca5780601f1061089f576101008083540402835291602001916108ca565b820191906000526020600020905b8154815290600101906020018083116108ad57829003601f168201915b505050505081526020016001820180546108e390611f1a565b80601f016020809104026020016040519081016040528092919081815260200182805461090f90611f1a565b801561095c5780601f106109315761010080835404028352916020019161095c565b820191906000526020600020905b81548152906001019060200180831161093f57829003601f168201915b5050505050815260200160028201805461097590611f1a565b80601f01602080910402602001604051908101604052809291908181526020018280546109a190611f1a565b80156109ee5780601f106109c3576101008083540402835291602001916109ee565b820191906000526020600020905b8154815290600101906020018083116109d157829003601f168201915b50505050508152602001600382018054610a0790611f1a565b80601f0160208091040260200160405190810160405280929190818152602001828054610a3390611f1a565b8015610a805780601f10610a5557610100808354040283529160200191610a80565b820191906000526020600020905b815481529060010190602001808311610a6357829003601f168201915b50505050508152602001600482018054610a9990611f1a565b80601f0160208091040260200160405190810160405280929190818152602001828054610ac590611f1a565b8015610b125780601f10610ae757610100808354040283529160200191610b12565b820191906000526020600020905b815481529060010190602001808311610af557829003601f168201915b50505050508152505081526020018481526020018381526020013373ffffffffffffffffffffffffffffffffffffffff1681525090806001815401808255809150506001900390600052602060002090600802016000909190919091506000820151816000016000820151816000019081610b8d91906121e4565b506020820151816001019081610ba391906121e4565b506040820151816002019081610bb991906121e4565b506060820151816003019081610bcf91906121e4565b506080820151816004019081610be591906121e4565b5050506020820151816005019081610bfd91906121e4565b506040820151816006019081610c1391906121e4565b5060608201518160070160006101000a81548173ffffffffffffffffffffffffffffffffffffffff021916908373ffffffffffffffffffffffffffffffffffffffff16021790555050507f462009532ec6130c0e39e10d07ecc443cafe21b4352444736001f665528346b360405160405180910390a1505050565b6000805460015483610ca091906123bd565b610caa91906123ff565b905081600560008381526020019081526020016000208190555060016006600083815260200190815260200160002060006101000a81548160ff021916908315150217905550600080815480929190610d0290612433565b91905055505050565b606060086000838152602001908152602001600020805480602002602001604051908101604052809291908181526020016000905b828210156111da5783829060005260206000209060080201604051806080016040529081600082016040518060a0016040529081600082018054610d8390611f1a565b80601f0160208091040260200160405190810160405280929190818152602001828054610daf90611f1a565b8015610dfc5780601f10610dd157610100808354040283529160200191610dfc565b820191906000526020600020905b815481529060010190602001808311610ddf57829003601f168201915b50505050508152602001600182018054610e1590611f1a565b80601f0160208091040260200160405190810160405280929190818152602001828054610e4190611f1a565b8015610e8e5780601f10610e6357610100808354040283529160200191610e8e565b820191906000526020600020905b815481529060010190602001808311610e7157829003601f168201915b50505050508152602001600282018054610ea790611f1a565b80601f0160208091040260200160405190810160405280929190818152602001828054610ed390611f1a565b8015610f205780601f10610ef557610100808354040283529160200191610f20565b820191906000526020600020905b815481529060010190602001808311610f0357829003601f168201915b50505050508152602001600382018054610f3990611f1a565b80601f0160208091040260200160405190810160405280929190818152602001828054610f6590611f1a565b8015610fb25780601f10610f8757610100808354040283529160200191610fb2565b820191906000526020600020905b815481529060010190602001808311610f9557829003601f168201915b50505050508152602001600482018054610fcb90611f1a565b80601f0160208091040260200160405190810160405280929190818152602001828054610ff790611f1a565b80156110445780601f1061101957610100808354040283529160200191611044565b820191906000526020600020905b81548152906001019060200180831161102757829003601f168201915b505050505081525050815260200160058201805461106190611f1a565b80601f016020809104026020016040519081016040528092919081815260200182805461108d90611f1a565b80156110da5780601f106110af576101008083540402835291602001916110da565b820191906000526020600020905b8154815290600101906020018083116110bd57829003601f168201915b505050505081526020016006820180546110f390611f1a565b80601f016020809104026020016040519081016040528092919081815260200182805461111f90611f1a565b801561116c5780601f106111415761010080835404028352916020019161116c565b820191906000526020600020905b81548152906001019060200180831161114f57829003601f168201915b505050505081526020016007820160009054906101000a900473ffffffffffffffffffffffffffffffffffffffff1673ffffffffffffffffffffffffffffffffffffffff1673ffffffffffffffffffffffffffffffffffffffff168152505081526020019060010190610d40565b505050509050919050565b6008602052816000526040600020818154811061120157600080fd5b906000526020600020906008020160009150915050806000016040518060a001604052908160008201805461123590611f1a565b80601f016020809104026020016040519081016040528092919081815260200182805461126190611f1a565b80156112ae5780601f10611283576101008083540402835291602001916112ae565b820191906000526020600020905b81548152906001019060200180831161129157829003601f168201915b505050505081526020016001820180546112c790611f1a565b80601f01602080910402602001604051908101604052809291908181526020018280546112f390611f1a565b80156113405780601f1061131557610100808354040283529160200191611340565b820191906000526020600020905b81548152906001019060200180831161132357829003601f168201915b5050505050815260200160028201805461135990611f1a565b80601f016020809104026020016040519081016040528092919081815260200182805461138590611f1a565b80156113d25780601f106113a7576101008083540402835291602001916113d2565b820191906000526020600020905b8154815290600101906020018083116113b557829003601f168201915b505050505081526020016003820180546113eb90611f1a565b80601f016020809104026020016040519081016040528092919081815260200182805461141790611f1a565b80156114645780601f1061143957610100808354040283529160200191611464565b820191906000526020600020905b81548152906001019060200180831161144757829003601f168201915b5050505050815260200160048201805461147d90611f1a565b80601f01602080910402602001604051908101604052809291908181526020018280546114a990611f1a565b80156114f65780601f106114cb576101008083540402835291602001916114f6565b820191906000526020600020905b8154815290600101906020018083116114d957829003601f168201915b5050505050815250509080600501805461150f90611f1a565b80601f016020809104026020016040519081016040528092919081815260200182805461153b90611f1a565b80156115885780601f1061155d57610100808354040283529160200191611588565b820191906000526020600020905b81548152906001019060200180831161156b57829003601f168201915b50505050509080600601805461159d90611f1a565b80601f01602080910402602001604051908101604052809291908181526020018280546115c990611f1a565b80156116165780601f106115eb57610100808354040283529160200191611616565b820191906000526020600020905b8154815290600101906020018083116115f957829003601f168201915b5050505050908060070160009054906101000a900473ffffffffffffffffffffffffffffffffffffffff16905084565b60006001600054611657919061247b565b6001548361166591906123bd565b61166f91906123ff565b9050919050565b6040518060a0016040528060608152602001606081526020016060815260200160608152602001606081525090565b6000819050919050565b6116b8816116a5565b82525050565b60006020820190506116d360008301846116af565b92915050565b6000604051905090565b600080fd5b600080fd5b600080fd5b600080fd5b6000601f19601f8301169050919050565b7f4e487b7100000000000000000000000000000000000000000000000000000000600052604160045260246000fd5b611740826116f7565b810181811067ffffffffffffffff8211171561175f5761175e611708565b5b80604052505050565b60006117726116d9565b905061177e8282611737565b919050565b600067ffffffffffffffff82111561179e5761179d611708565b5b6117a7826116f7565b9050602081019050919050565b82818337600083830152505050565b60006117d66117d184611783565b611768565b9050828152602081018484840111156117f2576117f16116f2565b5b6117fd8482856117b4565b509392505050565b600082601f83011261181a576118196116ed565b5b813561182a8482602086016117c3565b91505092915050565b600060208284031215611849576118486116e3565b5b600082013567ffffffffffffffff811115611867576118666116e8565b5b61187384828501611805565b91505092915050565b60008115159050919050565b6118918161187c565b82525050565b60006020820190506118ac6000830184611888565b92915050565b600080600080600060a086880312156118ce576118cd6116e3565b5b600086013567ffffffffffffffff8111156118ec576118eb6116e8565b5b6118f888828901611805565b955050602086013567ffffffffffffffff811115611919576119186116e8565b5b61192588828901611805565b945050604086013567ffffffffffffffff811115611946576119456116e8565b5b61195288828901611805565b935050606086013567ffffffffffffffff811115611973576119726116e8565b5b61197f88828901611805565b925050608086013567ffffffffffffffff8111156119a05761199f6116e8565b5b6119ac88828901611805565b9150509295509295909350565b600081519050919050565b600082825260208201905092915050565b60005b838110156119f35780820151818401526020810190506119d8565b60008484015250505050565b6000611a0a826119b9565b611a1481856119c4565b9350611a248185602086016119d5565b611a2d816116f7565b840191505092915050565b600060a0830160008301518482036000860152611a5582826119ff565b91505060208301518482036020860152611a6f82826119ff565b91505060408301518482036040860152611a8982826119ff565b91505060608301518482036060860152611aa382826119ff565b91505060808301518482036080860152611abd82826119ff565b9150508091505092915050565b60006020820190508181036000830152611ae48184611a38565b905092915050565b611af5816116a5565b8114611b0057600080fd5b50565b600081359050611b1281611aec565b92915050565b600080600060608486031215611b3157611b306116e3565b5b6000611b3f86828701611b03565b935050602084013567ffffffffffffffff811115611b6057611b5f6116e8565b5b611b6c86828701611805565b925050604084013567ffffffffffffffff811115611b8d57611b8c6116e8565b5b611b9986828701611805565b9150509250925092565b600060208284031215611bb957611bb86116e3565b5b6000611bc784828501611b03565b91505092915050565b600081519050919050565b600082825260208201905092915050565b6000819050602082019050919050565b600060a0830160008301518482036000860152611c1982826119ff565b91505060208301518482036020860152611c3382826119ff565b91505060408301518482036040860152611c4d82826119ff565b91505060608301518482036060860152611c6782826119ff565b91505060808301518482036080860152611c8182826119ff565b9150508091505092915050565b600073ffffffffffffffffffffffffffffffffffffffff82169050919050565b6000611cb982611c8e565b9050919050565b611cc981611cae565b82525050565b60006080830160008301518482036000860152611cec8282611bfc565b91505060208301518482036020860152611d0682826119ff565b91505060408301518482036040860152611d2082826119ff565b9150506060830151611d356060860182611cc0565b508091505092915050565b6000611d4c8383611ccf565b905092915050565b6000602082019050919050565b6000611d6c82611bd0565b611d768185611bdb565b935083602082028501611d8885611bec565b8060005b85811015611dc45784840389528151611da58582611d40565b9450611db083611d54565b925060208a01995050600181019050611d8c565b50829750879550505050505092915050565b60006020820190508181036000830152611df08184611d61565b905092915050565b60008060408385031215611e0f57611e0e6116e3565b5b6000611e1d85828601611b03565b9250506020611e2e85828601611b03565b9150509250929050565b600082825260208201905092915050565b6000611e54826119b9565b611e5e8185611e38565b9350611e6e8185602086016119d5565b611e77816116f7565b840191505092915050565b611e8b81611cae565b82525050565b60006080820190508181036000830152611eab8187611a38565b90508181036020830152611ebf8186611e49565b90508181036040830152611ed38185611e49565b9050611ee26060830184611e82565b95945050505050565b7f4e487b7100000000000000000000000000000000000000000000000000000000600052602260045260246000fd5b60006002820490506001821680611f3257607f821691505b602082108103611f4557611f44611eeb565b5b50919050565b600081905092915050565b60008190508160005260206000209050919050565b60008154611f7881611f1a565b611f828186611f4b565b94506001821660008114611f9d5760018114611fb257611fe5565b60ff1983168652811515820286019350611fe5565b611fbb85611f56565b60005b83811015611fdd57815481890152600182019150602081019050611fbe565b838801955050505b50505092915050565b6000611ffa8284611f6b565b915081905092915050565b6000612010826119b9565b61201a8185611f4b565b935061202a8185602086016119d5565b80840191505092915050565b60006120428284612005565b915081905092915050565b60006020601f8301049050919050565b600082821b905092915050565b60006008830261209a7fffffffffffffffffffffffffffffffffffffffffffffffffffffffffffffffff8261205d565b6120a4868361205d565b95508019841693508086168417925050509392505050565b6000819050919050565b60006120e16120dc6120d7846116a5565b6120bc565b6116a5565b9050919050565b6000819050919050565b6120fb836120c6565b61210f612107826120e8565b84845461206a565b825550505050565b600090565b612124612117565b61212f8184846120f2565b505050565b5b818110156121535761214860008261211c565b600181019050612135565b5050565b601f8211156121985761216981611f56565b6121728461204d565b81016020851015612181578190505b61219561218d8561204d565b830182612134565b50505b505050565b600082821c905092915050565b60006121bb6000198460080261219d565b1980831691505092915050565b60006121d483836121aa565b9150826002028217905092915050565b6121ed826119b9565b67ffffffffffffffff81111561220657612205611708565b5b6122108254611f1a565b61221b828285612157565b600060209050601f83116001811461224e576000841561223c578287015190505b61224685826121c8565b8655506122ae565b601f19841661225c86611f56565b60005b828110156122845784890151825560018201915060208501945060208101905061225f565b868310156122a1578489015161229d601f8916826121aa565b8355505b6001600288020188555050505b505050505050565b7f496e76616c69642050726f6475637420436f6465000000000000000000000000600082015250565b60006122ec601483611e38565b91506122f7826122b6565b602082019050919050565b6000602082019050818103600083015261231b816122df565b9050919050565b7f4e6f74206174204c6f636174696f6e0000000000000000000000000000000000600082015250565b6000612358600f83611e38565b915061236382612322565b602082019050919050565b600060208201905081810360008301526123878161234b565b9050919050565b7f4e487b7100000000000000000000000000000000000000000000000000000000600052601160045260246000fd5b60006123c8826116a5565b91506123d3836116a5565b92508282026123e1816116a5565b915082820484148315176123f8576123f761238e565b5b5092915050565b600061240a826116a5565b9150612415836116a5565b925082820190508082111561242d5761242c61238e565b5b92915050565b600061243e826116a5565b91507fffffffffffffffffffffffffffffffffffffffffffffffffffffffffffffffff82036124705761246f61238e565b5b600182019050919050565b6000612486826116a5565b9150612491836116a5565b92508282039050818111156124a9576124a861238e565b5b9291505056fea26469706673582212204136ffe10910b71ade7d4f7d0b15322a4d89b59b520f4b1336d1dc3a3e6a0f8064736f6c634300081100332432612431322452454a4879326150415359574558556456776a705a7535786252324f546c75647376713469596f5061702f6b315555626f35536a79466f6f64207061737465206f7220737072656164206d6164652066726f6d2067726f756e642c206472792d726f6173746564207065616e7574732e4d6164652066726f6d2061206d697874757265206f66206672756974732061726520757375616c6c792063616c6c656420636f6e7365727665732c20657370656369616c6c79207768656e207468657920696e636c75646520636974727573206672756974732c206e7574732c2072616973696e732c206f7220636f636f6e75742e",
  "linkReferences": {},
  "deployedLinkReferences": {}
}